S01A00005461626C6963615F6B696572756E6B6F77612E73726563BB
S11300000C94350B0C94520B0C94520B0C94520B15
S11300100C94DE170C94520B0C94520B0C94520B50
S11300200C94520B0C94520B0C94520B0C94520BD8
S11300300C94520B0C94520B0C94520B0C94520BC8
S11300400C94520B0C94520B0C94520B0C94520BB8
S11300500C94520B0C94520B0C94520B0C94520BA8
S11300600C94520B0C94520B0C94520B0C94520B98
S11300700C94520B0C94520B0C94520B0C94520B88
S11300800C94520B0C94520B0C94520B0C94520B78
S11300900C94520B0C94520B0C94520B0C94520B68
S11300A00C94520B0C94520B0C94520B0C94520B58
S11300B00C94520BBF00030204040405051710F846
S11300C0FD0AFD0AFD01F304450CFC200500182976
S11300D0210BA409A94C91532C4900220B456A2DEC
S11300E09421199229012316A90973A3304AA368FC
S11300F018B4288CB26190AA5118A5002415D8EA26
S113010072D3419A2A5134EB6AA24489121DD43C19
S113011005251BAA0977863089B2442A294AB8E4FE
S11301204832644A142952222943B8002616AB09DE
S11301303787588AA578881365982C9A126937717D
S1130140B8002707426A272E01280CD5D92AB39A6A
S113015049F3318D00290CD5D8EAC250F32DD31AB6
S1130160012A0C555AAD94CA920C4994002B0C8860
S11301700933F3B661D0F222002C0A53D8689441B3
S11301804914002D06134929062E062309290E2F8A
S11301901ADAD8EE111DC9911CD1911CC9111DC9BF
S11301A0911CD1911CC9111D013015A809F3864C6D
S11301B05234451BC2211CC22153246DC800310C8A
S11301C0A60AB3865013BD89D2303212A809F38629
S11301D02C9A32591CD5381E866498003313A8090A
S11301E0B3062D933255DB115909956C193400343B
S11301F013A809B3D53109132D9232651844591D3A
S113020012003511A80AB386298F87DCAC844A26EC
S11302100D1A003614A80A3387484BC4441D86645B
S113022052C42193326D03370EA80A7386211986AE
S1130230B8B36A96013812A809F3864CF2146ECA50
S1130240220EE1204983043914A809F3864C523460
S11302504553A48B3A844A260D1A003A0A7409A914
S1130260941D5D24003B0BA4D8A8ECB0A44C9104CD
S11302703C0F8909F39158DC761DD2211D51003DB4
S113028009492933DE89C3013E0F89087374448701
S11302907448DF463947003F0EA60A6F8644DAC425
S11302A0461D1245004019AB0939075155322D89B5
S11302B02245CA2229322593B44C613CA40041163C
S11302C0AB08F7734847123D9123355387214BA55B
S11302D0581987004216A909B3862193B44CB20D6C
S11302E0A2144A5A2649CB3044004313AA0935873D
S11302F069535445DF75444776440C070D4416ABE7
S113030009B78621D544932AA9922A899A2869D3C0
S11303103084004514A909B38621D332590A075100
S11303200A655D4C8621024612A909B18621D3EAE9
S113033052388852A8E7F290024714AA093787690D
S113034053D644DFB561481571D2C461024817AD74
S113035008B90665D0C4D12A8AC35115ADA2386A3A
S113036083324800490EA609AB864CDB4437511B47
S113037022004A11D9D82E0775D69D67DDA66C9147
S113038038A4004B16AB08B58668334AE9120FF956
S1130390202BAB249A866848004C0DA809B38654D8
S11303A056656F89381C4D1BAE08BBE64D1DB73131
S11303B0911231911231192231D2C4C8986BEB10C9
S11303C0014E18AC09B7C64D0D372DD1C2480A23CA
S11303D029CC94301B536DCD004F14AB0A390771EF
S11303E09346491DD641566445D5AC430A5012A9DB
S11303F009B38651D23249936C8328EBF2900251AF
S113040019DCDA380775D3464D5DD645966449DD67
S1130410B475D8A11CD5D1215213AA08B58641F3CD
S1130420491B4645954449DB94211B5312A809F105
S113043006494BB6483EC44AA864CBA0015412AA4C
S11304400A351E342DD4771DD1111DD1E741045531
S113045016AA0A370669512335529331522335526D
S1130460A32D1C44005616AB0A358670912335DB48
S1130470442D9562451E7244876400571CAD0A3BA7
S113048086285B342D92A64C9A322551422551C2BE
S1130490699D564DD654005815AB08B3866813535E
S11304A02956F21DD9933513C3E910015914AA0A28
S11304B033866C51A32D94D221D7115D47F42105C5
S11304C05A10AA09B586410A757D7E372AC32001D0
S11304D05B0DD6D8EA26D131744C4371035C0CD43D
S11304E0DA2EB2306BD33A66015D0CD6D8EA4631C7
S11304F0F4187ADA005E0E882973F3588D32292BAA
S11305008573005F0616E82E0E6007238C31B40055
S113051061107809F3062953B44453A445499469F6
S11305206213A8097366ABB40C8932299A92295ACA
S1130530346800630E7709EF86284BB4D5160D1185
S1130540006414A909B377591CB44CD2146D9126D4
S11305506588866401650E7709F1264BA40C92AA7E
S11305602983026612E8D92C874CCAA4481D445931
S11305705D655759066716A9D8320749933249531E
S1130580A64949A46509254D1A44006812A80973AF
S113059066ABB428893229D222299AA20D690BA408
S11305A009A98C93CB222D006A10D8D8AAEDE86C47
S11305B05D6553A445DA10026B11A8097366EBA4B8
S11305C048166D0815495AB4016C0CA409692665CE
S11305D0915C1669016D157C093D26695186413986
S11305E024A649C924459314E9006E117809338679
S11305F06451126552A4455234451B6F107809F1B9
S1130600862C53B4211C3245D2860C7014A9D9729D
S11306100ED1904893B2299AA4658328EB3A0071CD
S113062013A8D9F2062953B42153A4451992495D5C
S11306306509720C77092F26C534AAA2AA02730F82
S11306407709AF06458AD6295A32659000740D950C
S1130650096B2669503493262E007511780933A648
S11306604553246552A44549944300760E780931D4
S1130670364553B44C0957390577137B0939A64CD1
S1130680912C9294254B288D929A8500780D7709A8
S11306906F248B3484E26491067913AAD87086E8B7
S11306A0660BA554C97544477224DE017A0D780996
S11306B0B1862553BD25C390007B0ED5D9AA26CD7E
S11306C0C9186A92264A007C0DD4D9E84A599394F1
S11306D0356519007D0ED5D8AA444DD2C450B2391F
S11306E04D007E0938297336C9B600A005001829C3
S11306F0A10BA4D8A8CC5994354900A213A70A7316
S1130700C3215A12259922295232251CB410A3114F
S1130710A80A33874CCA54751065551DA66102A4F6
S113072013AA0973E4280D07350B3B4AE220A651AE
S11307309E00A513AA0A33866C1135295E87591EBB
S1130740561DD18714A60CD4D9E84A5973D694659A
S113075000A718D8D9F206498BB4481E3265D2A234
S1130760291BE225543269D000A807159C311401D5
S1130770A91AAC09F90639D5A241296949294EA219
S1130780788AA36888B2541D4400AA0E664AAF86CC
S11307904419A22151964419AB0F7709EFA2488955
S11307A014B72853B42801AC094829330E7A390107
S11307B0AD0613492906AE0F773AB3B64AB22815E7
S11307C065A9651300AF07149C318600B007228B1E
S11307D0298600B111890873732447C261107324F8
S11307E087874101B20D65406B8624CA24291B12F8
S11307F000B30C65406BA6441993289900B40724F0
S11308008D710609B512A9D974A64993DC246952DD
S113081012691992DC0EB615D6DA7286CB100D4920
S1130820A46449966449D42F591201B707223C3372
S11308308600B80733DA70A421B90963406BA44A6F
S1130840940CBA0E664AAF864419A2211AA2680211
S1130850BB0F77096FA24CD1A24C714AA41A00BCF9
S113086017AB0A776429D5422D143345599451297D
S11308702A83A446EA02BD15AB0A776429D5422D22
S113088014B34139859AB7501B2200BE19AC0B77BB
S1130890662511A551CDB4285294495995AA3268B8
S11308A06AA62E00BF0DA6D82EED90D8A86DC990CB
S11308B000C019DB08B7753027E7908E247A2247E9
S11308C06AA60E43964AB1320E01C118DB08F777C7
S11308D09D9E433A92E8891CA9993A0C592AC5CAA3
S11308E03804C218DB08F74D3935877424D113391D
S11308F052337518B2548A957108C31ADB08B79538
S113090038D1C939A423899EC8919AA9C390A55204
S1130910AC8C4300C418CB0877159D9A433A92E8EF
S1130920891CA9993A0C592AC5CA3804C519DB0887
S1130930F7754827E7908E247A22476AA60E4396D5
S11309404AB1320E01C61CAF08FB9161C8C738D149
S1130950B148CAA3418E7468D891504F35651A06C0
S113096009C716DAD9348769535445DF7544477685
S1130970440C0739C7F215C817D909337528878776
S113098021D332590A07510A655D4C862102C916E2
S1130990D909B3571D1E864CCB64291C4429947570
S11309A031198608CA17D909734D393A0C9996C971
S11309B05238885228EB62320C1100CB16C9093325
S11309C0151D1C864CCB64291C4429947531198649
S11309D008CC10D609ABE41C1A326D13DD446D88C3
S11309E000CD10D7092B371D1C4271541D5571C8F9
S11309F000CE11D7092B35298786501C5547551C25
S1130A003200CF10C709AB141D1A4271541D557121
S1130A10C800D017AB09B78621D5B451529541937C
S1130A2054499446499B862104D11CDC09B7953C62
S1130A30D169E3A6869B96686124859114664A98D9
S1130A408DA9B66600D217DB0A797530270EE22627
S1130A508D923AAC83ACC88AAA598714D317DB0A9F
S1130A60B9779D3A889B344AEAB00EB2222BAA6623
S1130A701D5200D417DB0AB97529A70DE2268D9201
S1130A803AAC83ACC88AAA598714D518DB0A79957D
S1130A9038D18983B849A3A40EEB202BB2A26AD61D
S1130AA02105D617CB0A39159D36889B344AEAB0FE
S1130AB00EB2222BAA661D5200D70F890973D428BF
S1130AC02CA5F31A85A55401D818AD097907451347
S1130AD0ADA236649649CA2CA1368A9BA80C310073
S1130AE0D919DA0A37752C8707695123355293319E
S1130AF052233552A32D1C4400DA18DA0A77671DF5
S1130B001FA4458DD4484DC6488DD4488DB6701069
S1130B1001DB19DA0A7765294707695123355293AE
S1130B203152233552A32D1C4400DC18CA0AF71491
S1130B301D1DA4458DD4484DC6488DD4488DB6702E
S1130B401001DD16DA0A73671D1FB2458DB6504ACF
S1130B50875C47741DD18714DE12A909B386581F18
S1130B6034932669926DD0E42105DF18E8D9F28622
S1130B703032654AA884432699164D51126558644B
S1130B803300E013A80933752447072953B44453A9
S1130B90A445499469E113A80973471D1EA44CD1C7
S1130BA0124D91162551A601E213A8097345290790
S1130BB0072953B44453A445499469E314A8093359
S1130BC0952CD1D141CA142DD114695112651AE45E
S1130BD0139809F3141D1CA44CD1124D91162551E0
S1130BE0A601E513A80973651D1DA44CD1124D91EE
S1130BF0162551A601E6157C09FB865326299A344D
S1130C00648324AD4AA40DD9A000E710A7D9EE86C9
S1130C10284BB4D5160D611E6E00E811A709F1F436
S1130C201C9C2C913248AAA60C0A00E911A7093190
S1130C30371D9D2C913248AAA60C0A00EA11A70977
S1130C40313529C7264BA40C92AA298302EB1197AC
S1130C5009B1141D9B2C913248AAA60C0A00EC0D74
S1130C60A509A9D4748826CD744800ED0EA609E917
S1130C70261D19B24DB41D2200EE0EA609E9242941
S1130C801EB24DB41D2200EF0C960969CC43B689FF
S1130C90B64304F015B809B3B3211E137190A245ED
S1130CA01BC24453A66CC800F115A80933952CD176
S1130CB0A12159944499146991144DD106F213A8B1
S1130CC009F1742487872C53B4211C3245D2860C35
S1130CD0F313A80971471D1EB24CD18670C814497C
S1130CE01B3200F413A80971452907872C53B4213A
S1130CF01C3245D2860CF514A80931952CD1D1218A
S1130D00CB146D08874C91B42103F6139809F114A0
S1130D101D1CB24CD18670C814491B3200F70B78E5
S1130D20093373EA30E8D410F80F79093197C869A8
S1130D30521269721A4400F913A809337524872ED4
S1130D409A222993222D4AA21C02FA13A809734756
S1130D501D9B164D919449911625510E01FB14A823
S1130D600973452947A64553246552A4454994432C
S1130D7000FC139809F3141D99164D91944991168A
S1130D8025510E01FD15DAD8B0671D1FA29B2D94C5
S1130D905225D7111DC9917807FE17D9D9728658E3
S1130DA0B70CD1902843A46C8A2669D9A0CDBA0E79
S1130DB0FF15CAD830151D1DA29B2D945225D7119D
S1130DC01DC991780700000004FFFF0000BF000365
S1130DD00304040205050C0D00FE09FE09FE01587A
S1130DE002C6087F2005006E0A210792438A270164
S1130DF0220734DB8A4301230D96C31B12C54262CA
S1130E00B1902800240FA6BF2B19E5301BCE0E137A
S1130E109A0800250E98C39CA1446522D565A27149
S1130E2002260D96C31B198926941D229A0A2706A9
S1130E3032DB09032808B33B1A8AFE24290AB33B90
S1130E400A9144BF50002A0834D70A8A84002B0A26
S1130E5056C72BA1C82414012C07233F1A0A002DBE
S1130E6006134F8A012E0612430A012F0993431ACF
S1130E705D285A00300B96C31B8A889F24140031C6
S1130E800794C32B937E320B96C31B8A48A8A6A350
S1130E9001330E96C31B8A48A834159224140034D7
S1130EA00C96C33BD9128B8A4D2801350F96C38B00
S1130EB043505811098524090500360E96C31B8A30
S1130EC08828AC8898241400370D96C30BA34C28AB
S1130ED013CA846A00380E96C31B8A8849421131AA
S1130EE0492800390E96C31B8A8849521492241447
S1130EF0003A0862430A3944003B08733F1A3998A0
S1130F00023C0875C33B91460D3D0736CB0BB3013C
S1130F103E0975C30BA1266D003F0D96C31B8A487D
S1130F20A8A6288789004016AB3FBEE26C249588AA
S1130F302814158A0AE92207CD612600410E984239
S1130F403CB194481369B244A702420C96438C8A7C
S1130F5088E92262BA00430C97439C8A8CAA3749D9
S1130F600500440C97C38C928A8C4F921200450B57
S1130F7096438C4350B1225434460B96C38B435052
S1130F80B122D408470C97C39C8A8CAA62639A182E
S1130F90480B97C30C19B7038D9B00490792438AEA
S1130FA007024A0B95423BBD8D469209004B1097B0
S1130FB0430C914489361CD224221599004C08967E
S1130FC0C30BA17E344D0F98430D21B1643ABC4844
S1130FD02812A2004E0D97C30C59A964B1504C6D50
S1130FE0024F0B97C39C8A8CDF241500500C974347
S1130FF00C8B8CED10916A05510CA7BF9C8A8C2F29
S1131000A6495900520C97C30C8B8CED10917113A7
S1131010530E96431C8A8828A50A49120A005409CB
S113102096430C93503F01550A97C30C197F935470
S113103000560E98428CE85422D21B912A960157EE
S1131040149C428E38680E9288F4B743F0101589C8
S1131050453200581098428CE854229251A534919C
S1131060243A15590D98428CE854229251C5BA017C
S11310705A0C98428C4358AAD7F821005B08B33B1A
S11310808A8AFE325C09A33F0A894E121D5D08B3A9
S11310903B8A89FE525E0836DF2B1945245F06170A
S11310A0BA8B036007235F0A9100610A66C31BAA17
S11310B0E4449214620B96C30BA16245C4E9026333
S11310C00B66C31B8A88A824A100640A96C34B2D0F
S11310D0274E9202650C66C31B8AE8301449280027
S11310E0660A93431A8AA4A20B00670A86BB9B1361
S11310F02749F102680B96C30BA1626542E2246999
S11311000892C309E1A1006A08B2BB09E1E1206BBE
S11311100D96C30BA1160969469228096C0792C360
S11311208907026D0E68C38C8B0A454291502414C2
S1131130056E0A66C38BCA84C449006F0A66C31B62
S11311408A88938402700B86BB8B8A88D3452804D3
S1131150710A86BB9B1327495101720863438A8A2B
S11311602E00730B65439B894689CA0400740A8365
S1131170430A89A4A24900750966C30B112F93027F
S1131180760C66C30B114942A2094500770E68C369
S11311900C898422391C28222D00780C65430B0904
S11311A045329A482802790B863A1BFD692614CDEC
S11311B0007A0965438B9A485B017B0CB4BF2A898A
S11311C0488B4CA44D007C07A2BF8907037D0CB457
S11311D0BF0A99489B44A445047E0826DB9BC304AC
S11311E000A005006E0AA108923B0AD1E100A20DFD
S11311F086BF3B1145445492906400B80C96C39B3F
S11312009144554653141AA40D76CB0B9184226253
S113121092504402A50E96C30B11938462129984D2
S11312202200A608B2BB89C3E830A712A6BF1B8A56
S1131230482223494412114D22925000A807145EFB
S11312408A8800A90F78CB2C9A48223988281591CE
S11312508C04AA0864CF8AD18148AB0856C32B0AF0
S11312601B03AC0726CB0BA300AD0613538A01AEB8
S11312700F78CB2C9A4872B01C2622190900AF06AD
S113128017E68B03B00834DB1A094502B10B76C3A9
S11312902BA1C82494430CB20954528A99441223B2
S11312A0A80954528A99445601B407235F1A0A00C4
S11312B0B50B86BB0B89FEE5101402B60AA6BF9BCC
S11312C0C383A4C407B70612530A01B806233B9A82
S11312D002B90753539A8A06BA0864CF8A072101D0
S11312E0BB0956C30B1A0B1300BC1198C31CE94C61
S11312F022529151449289C44416BD1198C31CE9E9
S11313004C225291D9441291442426BE1198C38C84
S1131310B9482292912A22C94462220BBF0D96BB7E
S11313202B394C285354925000C00E98423CB1942F
S1131330481369B244A702C10C96438C4350B122AE
S113134062BA00C20C96438C8A88E92262BA00C34E
S11313500996438C43503F02C414A9BF2D9B4826D1
S11313609289642299482652931CA802C50B96437D
S11313708C4350B1225434C6149C428EA04C225249
S113138093A89A5D256A2295A04C00C70E96431C2B
S11313908A48A8421592241400C80E97C30C19A9B0
S11313A0E510B1944A3401C910B7C31CB5918CD46B
S11313B07288584A259A00CA1097430C914489367A
S11313C01CD22422159900CB1398439D8B4C229355
S11313D0C82432894C2293C88802CC0F98430D212B
S11313E0B1643ABC482812A200CD0B97C30C19B7BC
S11313F0038D9B00CE0B97C39C8A8CDF241500CFF2
S11314000997C38C838CBF09D00C97430C8B8CED4C
S113141010916A05D10C97439C8A8CAA3749050020
S1131420D20996430C93503F01D30F98428CE85451
S1131430229251C552D53800D41298431D8B0A45C7
S113144042915024140945C52803D51098428CE8CC
S113145054229251A53491243A15D616A8BF0C995A
S11314604426914964129944269149649243580050
S1131470D70A97C30C1937895507D8159A430E9183
S1131480882422894822928824228948A24301D9A7
S113149017AB3F0E918A4845A4225211A98854449F
S11314A02A2295031D24DA0E99C20CBA769B924C1B
S11314B024135900DB0D99C30D29D74384E676988C
S11314C008DC0C97430CA9568B8CED1001DD0E97AC
S11314D0C39C8A4CAA5495D2241500DE0C99C30DE2
S11314E04985E66F940A00DF0E97C39C438C4D62D6
S11314F02349946802E00A66C31BAAE4449214E1F7
S11315000D96C34B0945581171925000E20B66C306
S11315108B8AE822225D00E30865438B9B6E00E41E
S11315200F773F9C92442411494412C94126E50C8B
S113153066C31B8AE83014492800E60C68C30C898A
S11315408A8D6651A128E70C66C31B8A4834254955
S11315502800E80A66C30B11CBA14212E90C86C32A
S11315601B9A48C472A89004EA0C66C30B8984349D
S113157023499404EB0E67431C8B4822928824224F
S11315809A00EC0C78BF0C61E96091101905ED0A22
S113159066C30B11E9306212EE0A66C31B8A889394
S11315A08402EF0966C38B43882701F00B86BB8B4B
S11315B08A88D3452804F10B66C31B8A88A824A112
S11315C000F20966C30B93502700F30B863A1BFD08
S11315D0692614CD00F40D96BB2B19E5F030A10952
S11315E04500F50C65430B0945329A482802F60F6D
S11315F0773F0C9144241149441291E42AF70A6676
S1131600C30B1193A4A800F80F68C30C898422A10A
S11316104828128AE430F90B793F0D89FEBF1CE497
S113162002FA0B66C38BA19024D14201FB0C6743E1
S11316300C19CD42B11C2202FC0B65430B998C2280
S1131640A15800FD0965430BE24D6601FE0B67439B
S11316500CC984E2853201FF0A65431B0B4562A174
S11316600800000004FFFF00000011241FBECFEF9C
S1131670D8E0DEBFCDBF12E0A0E0B1E0E8E2F2E3E3
S113168002C005900D92AE36B107D9F726E0AEE65A
S1131690B2E001C01D92A43EB207E1F70E94041813
S11316A00C9412190C9400005F926F927F928F92A7
S11316B09F92AF92BF92CF92DF92EF92FF920F93DD
S11316C01F93CF93DF935C016B014A0179013801C9
S11316D0FC01EC58FF4FD08181E0D11180E0582EFD
S11316E084010F5F1F4F96012E0D3F1DA401B6010B
S11316F0C5010E9498128823B1F1C1E02DC0F30105
S113170080818C2369F0F501EC58FF4FD08300E011
S113171021E030E0A401B601C5010E94D81110C037
S1131720F501ED58FF4F808181110AC03196508236
S113173000E021E030E0A401B601C5010E94D81107
S1131740FFEFCF1ADF0ACC0F21F48FEF681A780A63
S1131750C1E0E1E0EE1AF108E114F10481F6F501CB
S1131760EC58FF4FD083DF91CF911F910F91FF90E1
S1131770EF90DF90CF90BF90AF909F908F907F902D
S11317806F905F9008954F925F926F927F928F92C5
S11317909F92AF92BF92CF92DF92EF92FF920F93FC
S11317A01F93CF93DF932C013B01EA015901680198
S11317B0490187E0880E911C9694879496948794A7
S11317C0969487948A010C0D1D1D260F371FC201A4
S11317D00E94981281110EC010C087019501AE01BC
S11317E0B301C2010E94540BE80CF91C219681E05C
S11317F0C81AD108C114D10481F7DF91CF911F9188
S11318000F91FF90EF90DF90CF90BF90AF909F909B
S11318108F907F906F905F904F9008950F931F93D8
S1131820DC01ED91FC911197208992960D911C9108
S11318309397629FB0011124660F771F660F771F7D
S1131840660F771F060F171F60E00E94F9151F919E
S11318500F910895EF92FF920F931F93CF93DF930D
S11318608C01DC019496FC9094979596DC91959765
S1131870ED91FC91E188C0E04D2F6C2FC8010E94CE
S11318800E0CCF5FDF5FCF1510F4DE15A8F3DF91E8
S1131890CF911F910F91FF90EF900895FC01A081CB
S11318A0B18150969C9144A1949FA0011124440FAE
S11318B0551F440F551F440F551F60E070E082A16F
S11318C093A10E940B190895CF93DF93EC010E941A
S11318D02A0CCE010E943D16DF91CF9108958F927C
S11318E09F92AF92BF92CF92DF92EF92FF920F93AB
S11318F01F93CF93DF936C01B62EF42EA22EE02E0D
S1131900DC0194969C919497ED91FC9111978189B7
S1131910981327C096968D909C90979792962D91A8
S11319203C919397C62FD0E0CC0FDD1FCC0FDD1F69
S1131930CC0FDD1F489DC001499D900D1124C80F97
S1131940D91FC20FD31F0BC08E012A2D4F2D6B2D13
S1131950C6010E94F915C80DD91DF394EA94E1104B
S1131960F3CFDF91CF911F910F91FF90EF90DF9014
S1131970CF90BF90AF909F908F90089528E0FC0186
S113198020838EE692E00895CF92DF92EF92FF9249
S11319900F931F93CF93DF931F92CDB7DEB77C01D4
S11319A06B0189019A0149E755E161ED76E10E94F5
S11319B01617CE0101960E94BE0C86012DEB32E172
S11319C04981BC01C7010E94F1130F90DF91CF91AF
S11319D01F910F91FF90EF90DF90CF900895860FA5
S11319E0911DFC0184910895FC01E60FF11D849181
S11319F090E03196982F8827E4918E0F911D0895D9
S1131A0080E090E008950F931F93CF93DF93EC0150
S1131A108B0160E0C8010E94EF0C888361E0C8017B
S1131A200E94EF0C898362E0C8010E94EF0C8A8354
S1131A3063E0C8010E94EF0C8B8364E0C8010E943C
S1131A40EF0C8C8365E0C8010E94EF0C8D8366E087
S1131A50C8010E94EF0C8E8367E0C8010E94EF0C5E
S1131A608F8368E0C8010E94EF0C888769E0C80191
S1131A700E94EF0C89876AE0C8010E94EF0C8A87F4
S1131A806BE0C8010E94EF0C8B876CE0C8010E94D8
S1131A90EF0C8C876DE0C8010E94EF0C8D876EE01F
S1131AA0C8010E94EF0C8E876FE0C8010E94EF0C02
S1131AB08F8760E1C8010E94EF0C888B61E1C80147
S1131AC00E94F40C9A8B898B63E1C8010E94F40C88
S1131AD09C8B8B8B65E1C8010E94F40C9E8B8D8BD3
S1131AE0DF91CF911F910F910895DC011A964C91CB
S1131AF01A97ED91FC911197249130E0042E02C0C5
S1131B00359527950A94E2F7822F942F960F9830F3
S1131B1080F088E0841B31961196FC93EE93E49157
S1131B20F0E002C0EE0FFF1F8A95E2F78E2F822BA2
S1131B30985021E030E002C0220F331F6A95E2F78B
S1131B4021501A969C93822308950F931F93CF9349
S1131B50DF93EC018C01085B1F4FF80171836083F4
S1131B60128673966081C8010E94750DF801808702
S1131B7074966081C8010E94750DF8018187BC9636
S1131B808081F801848791E0811190E0C85BDF4F88
S1131B909D87DF91CF911F910F910895CF93C62F09
S1131BA00E94750DC15021E030E002C0220F331FA6
S1131BB0CA95E2F7821BCF910895213049F018F0BD
S1131BC0223059F00FC0840F911D47FD9A95089556
S1131BD0860F911D67FD9A950895841B910947FD11
S1131BE093950895861B910967FD93950895213077
S1131BF049F018F0223059F00FC0860F911D67FD8F
S1131C009A950895841B910947FD93950895861B21
S1131C10910967FD93950895840F911D47FD9A9549
S1131C2008956F927F928F929F92AF92BF92CF92BC
S1131C30DF92EF92FF920F931F93CF93DF937C0178
S1131C40162F742EFC01E85BFF4F9680D781F701B5
S1131C50E85BFF4FC085C9191C1710F06C2E01C03A
S1131C60612EF701E85BFF4FC480D58006858D2E79
S1131C70202F4D2F692D828193810E94F70D5C01E5
S1131C80202F4D2F692DC6010E94DD0D772071F0A4
S1131C90F701E85BFF4F2485BC962083262D30E0B6
S1131CA0AC01B501C7010E94D81110C0F701E85B6F
S1131CB0FF4F238521110AC02585BC962083262D3C
S1131CC030E0AC01B501C7010E94D8111C1720F007
S1131CD01C1BDF5F912CBBCF612F690DF701E85B03
S1131CE0FF4F66838782DF91CF911F910F91FF9001
S1131CF0EF90DF90CF90BF90AF909F908F907F90A8
S1131D006F9008956F927F928F929F92AF92BF923D
S1131D10CF92DF92EF92FF920F931F93CF93DF93B3
S1131D20EC017C0188E4E80EF11CCE010E94A50DB3
S1131D30FE01EF5AFF4FC0803C966081C7010E94AC
S1131D40CE0D782EFE01E25AFF4F6081C7010E943A
S1131D50CE0D182FFE01E15AFF4F6081C7010E948A
S1131D60CE0DD82EF701608416140CF09BC00685A6
S1131D701C0D1195202F412F672D828193810E9484
S1131D80F70D5C01F70193838283202F412F672D88
S1131D90848195810E94DD0DF70195838483013050
S1131DA089F028F0023001F10330A1F143C095011C
S1131DB0260D311D67FC3A958C010C0D111DC7FCD5
S1131DC01A953AC0A5014C195109C7FC53959501C0
S1131DD02F5F3F4F8C01060D111D67FC1A95BA0148
S1131DE06F5F7F4F5B0128C0A5014619510967FC4D
S1131DF0539595012F5F3F4FBC016C197109C7FCC6
S1131E0073958C010F5F1F4FCB010196FA01319638
S1131E105F0112C095012C0D311DC7FC3A95AC0130
S1131E204619510967FC53958C010F5F1F4FCA0176
S1131E30019602C08C019501AC01B501CE010E944E
S1131E409812882379F1FE01E85BFF4F168217820E
S1131E50FE01E75AFF4F6081C7010E94750D082FEC
S1131E60FE01E65AFF4F6081C7010E94750D182FCD
S1131E7040E0602FCE010E94110E41E0612FCE019F
S1131E800E94110E61E0C7010E94750D8111F0CF0F
S1131E90FE01E85BFF4F87818C15D4F28485CC5812
S1131EA0DF4F88838D2DDF91CF911F910F91FF908C
S1131EB0EF90DF90CF90BF90AF909F908F907F90E6
S1131EC06F900895EF92FF920F931F93CF93DF9338
S1131ED0FC01EC5BFF4FC081D18167966F3F7105B8
S1131EE009F038F56136710530F0B696808191813C
S1131EF0C80FD91F0AC06134710538F0FC01E859D4
S1131F00FF4F80819181C80FD91FCE010196FC013A
S1131F102491222309F43CC0FE01249130E062178D
S1131F20730711F4019639C0FC018491C80FD11DC7
S1131F30ECCF8B01FC01E459FF4F80819181C80FE4
S1131F40D91F7E0160E0C7010E94F40CC80FD91F9D
S1131F5062E0C7010E94F40CF4E0EF0EF11C80175C
S1131F60910780F3FE01849190E0982F88273196A1
S1131F70E4918E2B009779F00817190719F4CE0114
S1131F8003960BC0FE013296E491CE0FD11DEACF29
S1131F9080E090E002C080E090E0DF91CF911F915B
S1131FA00F91FF90EF900895CF93DF93EC01FC0124
S1131FB0E65BFF4F71836083329651834083B9019E
S1131FC00E94620F009741F0BC01CE010E94820E74
S1131FD0082E000C990B02C080E090E0DF91CF91B5
S1131FE008950F931F93CF93DF93EC010E94620F28
S1131FF00097F1F0BC01CE010E94A50D8E01085B93
S11320001F4FFE01E35AFF4F6081C8010E94CE0DAD
S1132010FE01EE58FF4F808374976081C8010E94CF
S1132020CE0DC15ADF4F6881C8010E94CE0D01C098
S113203080E0DF91CF911F910F910895BF92CF92CD
S1132040DF92EF92FF920F931F93CF93DF93EC01F4
S11320508B01FC01E05BFF4F10820E942E140F2EB7
S1132060F0ECBF2EF02DE12CF12CC12CD12CEA8107
S1132070FB81D8016C91CE0109958F3FBFEF9B077F
S1132080B9F00F5F1F4F8E3F2FEF920781F3BC0112
S1132090CE010E94F10FE82E880FFF0880ECB812E1
S11320A004C0FE01EE58FF4FB080CE0CDF1CDFCF22
S11320B0FE01E05BFF4F8081882399F0CE18DF0892
S11320C0C80ED11C87FDDA94CE58DF4F8881C80E24
S11320D0D11C87FDDA941B1424F4CB0CD11CB7FC5F
S11320E0DA94C601DF91CF911F910F91FF90EF9089
S11320F0DF90CF90BF9008958D5A9F4FFC0160836D
S11321000895CF92DF92EF92FF920F931F93CF9394
S1132110DF93EC018B017A016901FC01EA5AFF4F5C
S11321208081813089F028F08230C9F0833011F148
S11321302BC0FE01EA5BFF4F0190F081E02DCE0140
S11321400995E80EF91E20C0FE01EA5BFF4F0190DD
S1132150F081E02DCE010995081B190B15C0FE0175
S1132160EA5BFF4F0190F081E02DCE010995E81A5A
S1132170F90A0AC0FE01EA5BFF4F0190F081E02DED
S1132180CE010995080F191F9601A701B801CE01C8
S11321900E94D40FDF91CF911F910F91FF90EF9088
S11321A0DF90CF900895AF92BF92CF92DF92EF92DB
S11321B0FF920F931F93CF93DF93EC015B016A01AE
S11321C089010E942E14E12CF12CEA81FB81D801B3
S11321D06C91CE0109958F3FBFEF9B0739F10F5FDB
S11321E01F4F8E3F2FEF920781F39C01A601B5018B
S11321F0CE010E9481109C01FE01EA5AFF4F90819A
S1132200913049F028F0923049F0933051F00BC0EE
S1132210A20EB31E08C0C20ED31E05C0A21AB30A72
S113222002C0C21AD30AE20EF31ECFCFC701DF9158
S1132230CF911F910F91FF90EF90DF90CF90BF90BF
S1132240AF900895E1E2F4E1DC011396FC93EE9380
S113225012970E94D3100895FC01EC5BFF4F20817C
S11322603181232BE1F1B09620813C9620833B976A
S113227040813C96408332973081332381F1313061
S113228079F439973081231714F43A963083FC019A
S1132290E959FF4F2081241714F53A9620830895B5
S11322A0022E000C330BFC01EF59FF4FE081DC01DF
S11322B0AD59BF4F5C91652F052E000C770B6E0F47
S11322C0711DE7FD7A95261737071CF41D96E50F57
S11322D0EC93541724F4FC01EF58FF4F50830895F6
S11322E08A5B9F4F20E03DE0FC0131832083089509
S11322F0CF93DF93FC01EC5BFF4F208131812617E4
S1132300370751F0EC0171836083895A9F4F0E9413
S1132310030DCE010E942C11DF91CF91089521E28B
S113232034E1FC01338322830E941E100895CF936D
S1132330DF93EC01A881B981EB01E881F981EA0F0F
S1132340FB1FEA17FB0738F4A217B30718F4F901C7
S1132350319701C0DA01A217B307A8F44E175F073B
S1132360A0F4A417B50708F0AD012E173F0708F035
S11323709F01FC0151834083241B350BEB013983FE
S1132380288381E003C080E001C080E0DF91CF9129
S113239008950F93DC019A96ED91FC919B974E1B47
S11323A05F0B5E96ED91FC915F9709950F910895EF
S11323B0EF92FF920F931F93CF93DF9300D000D03F
S11323C000D0CDB7DEB77A8369835C834B833E83C9
S11323D02D83FC01E259FF4F2081222309F474C0AC
S11323E02D813E812115310509F46EC0223031055D
S11323F0B0F0023041F4621B730B9B012F5F3F4F1F
S11324003A8329830CC0033051F44B815C81DA0197
S1132410A21BB30B9D012F5F3F4F3C832B837C0199
S1132420102F117000FD1DC0FC0120AD31AD8B815A
S11324309C818217930708F447C022AD33AD8217FD
S1132440930708F041C026A937A944A955A9BE019C
S11324506B5F7F4FCE0101960E949711811123C0BB
S113246033C0DC01D4962D913C91D59789819A8112
S11324708217930748F1D6962D913C91D7978217EE
S1132480930710F5DA962D913C91DB97D8964D91F0
S11324905C91D997BE016B5F7F4FCE0103960E947A
S11324A09711882389F0D7019096ED91FC9191972B
S11324B00480F581E02D2D813E814B815C81698111
S11324C07A81012FC701099526960FB6F894DEBFCD
S11324D00FBECDBFDF91CF911F910F91FF90EF9071
S11324E008950F9300E00E94D8110F9108950F935F
S11324F001E00E94D8110F9108954617570740F440
S11325008217930768F02417350760F481E0089573
S11325108217930748F42417350740F481E008959F
S113252081E0089580E0089580E0089580E00895B2
S1132530CF92DF92EF92FF920F931F93CF93DF938B
S1132540EC017B01690198016AAD7BAD88AD99AD61
S11325500E947D12882341F06EA97FA99601A701EC
S11325608CA99DA90E947D12DF91CF911F910F919B
S1132570FF90EF90DF90CF9008950F931F93CF9328
S1132580DF93DC01CA01542F5770C1E0D0E0052E5F
S113259002C0CC0FDD1F0A94E2F71C2FFD01EC589A
S11325A0FF4FE081E23010F040E001C04C2FE130F9
S11325B009F410E0887FED91FC911197C089C89FC0
S11325C0F001C99FF00D112492968D919C919397DF
S11325D06E0F7F1FFC01E60FF71F011108C08081F9
S11325E0842B8127819321503109C9F721C090811F
S11325F0942B912790835F5F5770215031095111BB
S113260010C096968D919C919797E80FF91FED0154
S1132610CC58DF4F8881823008F441E0813021F4C6
S113262004C0440F110F01C011E021153105F9F662
S1132630DF91CF911F910F910895CF93DF93FC0108
S1132640A081B18184A190E09C01220F331F220F4D
S1132650331F220F331F31A720A750962C91509778
S113266030E0220F331F220F331F220F331F37A3F3
S113267026A375A1272F30E0A901440F551F440F4D
S1132680551F440F551F53A742A7280F391F5196B2
S11326906C915197C62FD0E0C217D30718F4CE011E
S11326A0871B9109880F991F880F991F880F991FFD
S11326B055A744A7840F951F97A786A754968D9175
S11326C09C91559791AB80AB56968D919C91579761
S11326D093AB82ABDF91CF9108950E941D130895AF
S11326E00F931F93CF93DF93EC01FC01EE5BFF4F3D
S11326F0008111812EAD3FAD3297408151816CAD87
S11327007DAD0E949812811104C0C259DF4F188216
S11327102FC081E0FE01E259FF4F80832CA93DA91F
S11327208CAD9DAD2817390710F49DAB8CAB2EA949
S11327303FA98EAD9FAD8217930710F49FAB8EAB6C
S113274028AD39ADFE01E05CFF4F808191812817EF
S1132750390710F499AF88AF2AAD3BADFE01EE5BAB
S1132760FF4F808191818217930710F49BAF8AAF4A
S1132770DF91CF911F910F910895FC0115AA14AA1E
S113278080A991A997AB86AB84A595A591AF80AF9D
S113279086A597A593AF82AFCF010E9470130895C9
S11327A00F930E94C9110F910895DC01DD961C92CC
S11327B01E92DC97FC01E05CFF4F118210822FEF28
S11327C03FEFFC0137AF26AFEE5BFF4F3183208331
S11327D09096ED91FC9191970280F381E02D0995FB
S11327E008950F931F93CF93DF93EC01FC01EC5BEF
S11327F0FF4F118210823F8F2E8F7BA36AA34CA3BD
S11328001DA23F961082B09610823497108235969E
S113281081E080833196808319A308A3D801ED91C8
S1132820FC91CE010995CE010E94D513CE010E94E0
S11328307011CA5ADF4F1882DF91CF911F910F9107
S11328400895662329F06A3031F0862F90E00895C8
S11328508FEF9FEF08958FEF9FEF0895FC01108E87
S11328600895462FDC011896ED91FC91199720E00C
S113287030E060E2099508959A01DC011896ED9123
S1132880FC911997462F67E109950895CF93DF933B
S11328901F92CDB7DEB76983AE014F5F5F4F61E032
S11328A00E943C140F90DF91CF910895BF92CF9274
S11328B0DF92EF92FF920F931F93CF93DF93EC017C
S11328C0B42E7901A881B9811C968C911C978170D2
S11328D0D82E81E0C82ECD18683109F456C028F4EA
S11328E06431E9F16731B9F174C0693109F45FC049
S11328F0603209F444C06DC0F70101917F01BA94BC
S113290010E027C0002334F441E061E4CE010E94CA
S1132910F41605C040E061E4CE010E94F416000FF5
S11329204C2D60E4CE010E94F416E881F9814681C1
S11329306CE2CE010E94F4164D2D60E4CE010E949B
S1132940F416E881F98147816CE2CE010E94F41605
S11329501F5F1830B8F2B110CFCF81E03BC01196A1
S11329604C9169E4CE010E94F416E881F981448512
S1132970417060E4CE010E94F41681E02BC06AE449
S1132980CE010E94F41681E025C04C9169E4CE0189
S11329900E94F416EA85FB85A881B98120E030E025
S11329A012964C916CE2CE01099581E013C0EA8540
S11329B0FB8520E030E013964C916CE2CE01099542
S11329C0E881F981418169E4CE010E94F41681E035
S11329D001C080E0DF91CF911F910F91FF90EF90A4
S11329E0DF90CF90BF900895462FDC011696ED91AD
S11329F0FC91179720E030E065E109950895462F92
S1132A00DC011696ED91FC91179720E030E066E129
S1132A10099508959A01DC011696ED91FC9117979A
S1132A20462F67E109950895DC011696ED91FC9116
S1132A30179720E030E040E068E109950895DC0153
S1132A401696ED91FC91179720E030E040E069E1A3
S1132A5009950895EF92FF920F931F93CF93DF93FD
S1132A601F92CDB7DEB77C018B01D8016D918D012A
S1132A706731B9F018F4653130F433C06A31E8F0E5
S1132A806E3F31F12EC0FD0141918F014983D70181
S1132A901696ED91FC91179720E030E0C701099557
S1132AA0E4CFFD0181918F018983AE014F5F5F4FB8
S1132AB061E0C7010E940A15D8CFD7011696ED919F
S1132AC0FC91179720E030E040E0C7010995CDCF95
S1132AD0FD0141918F01498369E2C7010E94F41607
S1132AE0C4CF0F90DF91CF911F910F91FF90EF9082
S1132AF00895EF92FF920F931F93CF93DF938C016E
S1132B00C62FD42F79016631A1F028F46431E9F09D
S1132B10653131F025C06731A9F06A3108F515C077
S1132B2060E00E9431146D2FC8010E94461481E0B8
S1132B3018C060E00E9431146D2FC8010E94461431
S1132B4081E00FC061E00E943114D8011896ED9124
S1132B50FC91199797014D2F6C2FC801099501C05D
S1132B6080E0DF91CF911F910F91FF90EF90089536
S1132B70FC0171836083FB012289FC01248B08958D
S1132B80CF93DF93EC01EA85FB8520E030E040E061
S1132B9068E20995EE81FF8120E030E040E064E1E5
S1132BA0CE01099541E06BE4CE010E94F416E88160
S1132BB0F981448169E2CE010E94F41640E06BE49D
S1132BC0CE010E94F416E881F981448169E2CE01C4
S1132BD00E94F41641E06BE4CE010E94F416E881F1
S1132BE0F981458169E2CE010E94F416DF91CF910B
S1132BF008950F931F93CF93DF9300D000D01F92BB
S1132C00CDB7DEB76C834D832B831A830983DC0134
S1132C101496ED91FC9115979E012F5F3F4F41E073
S1132C206FE009950F900F900F900F900F90DF9128
S1132C30CF911F910F910895DC011496ED91FC91B1
S1132C40159720E030E040E069E009950895DC0143
S1132C501496ED91FC91159720E030E040E06AE095
S1132C6009950895462FDC011496ED91FC91159772
S1132C7020E030E06BE009950895DC011496ED91B5
S1132C80FC91159720E030E040E060E1099508955B
S1132C90EF92FF920F931F93CF93DF938C01C42F76
S1132CA079016D30B9F018F46B3031F072C06E30C8
S1132CB069F16F30D1F16DC0411106C064E372E077
S1132CC00E942A1581E066C06FE272E00E942A1514
S1132CD081E060C041110DC068E272E00E942A15D3
S1132CE0D801ED91FC911197828954968C9381E0DF
S1132CF051C061E272E00E942A15D801ED91FC9165
S1132D001197838954968C9381E044C00E941415D2
S1132D1061E8C8010E94F4146C2FC8010E94FF14DA
S1132D20C8010E941F1581E035C00E941415F701E7
S1132D30D381DD0FDD0FDD0FD80154968C91D80FB0
S1132D4060E4C8010E94F4146D2F62956F70606195
S1132D50C8010E94F4146D2F6F70C8010E94FF1403
S1132D60F7016481606BC8010E94FF14D7011296B9
S1132D706C9112974D915C91660F660F660FC801B6
S1132D800E940A15C15091F7C8010E941F1581E0E5
S1132D9001C080E0DF91CF911F910F91FF90EF90E0
S1132DA008950F931F93CF938C01C62F0E9448164A
S1132DB0811115C0C93061F0CA3091F4C8010E9474
S1132DC0C01569E372E0C8010E942A1581E008C0B9
S1132DD069E072E0C8010E94B81581E001C081E099
S1132DE0CF911F910F910895DC011A96ED91FC91FA
S1132DF01B9720E030E00995089580E00895FC01D8
S1132E00118210828DEF96E1958384839783868364
S1132E109187808793878287158A108E14861586FA
S1132E20168617868FEF868B828F0895AF92BF9296
S1132E30CF92DF92EF92FF920F931F93CF93DF9382
S1132E40EC015B016A0179010E94FF16BD82AC822C
S1132E50DF82CE82F986E8861B870A87CE010E942C
S1132E601C16DF91CF911F910F91FF90EF90DF908F
S1132E70CF90BF90AF9008956A3219F118F4693277
S1132E8089F104C06B3221F06C32A9F180E008951D
S1132E90242F30E0A4E6B0E00E94FC1824EF31E0D7
S1132EA040E050E00E94DA18233238F5822F01976F
S1132EB0F1F781E008952AE12A95F1F700C001961F
S1132EC002C080E090E0242F30E0821793079CF347
S1132ED081E00895EFECF7E03197F1F700C00000CE
S1132EE0019602C080E090E0242F30E0821793071F
S1132EF08CF381E0089581E0089581E00895CF93F3
S1132F00DF93613441F128F4683259F06034C9F038
S1132F104AC06A34A1F16B34E1F1693409F043C069
S1132F2024C084B1806284B984B1886084B984B1D6
S1132F30846084B984B1826084B984B1816084B9C5
S1132F4039C0442321F085B1806285B933C085B18D
S1132F508F7D85B92FC0442321F085B1886085B960
S1132F6029C085B1877F85B925C0442321F085B167
S1132F70846085B91FC085B18B7F85B91BC044238C
S1132F8021F085B1826085B915C085B18D7F85B981
S1132F9011C0442321F085B1816085B90BC085B18E
S1132FA08E7F85B907C0EC010E943C17811102C0D5
S1132FB081E0898F81E0DF91CF9108951F920F9274
S1132FC00FB60F9211248F939F93309907C081E01D
S1132FD090E090930202809301020FC0319905C0E2
S1132FE0109202021092010208C0329906C08FEFBB
S1132FF09FEF90930202809301029F918F910F9013
S11330000FBE0F901F901895F89488E087B987E059
S113301088B980936C0082E08093680078942FE7ED
S113302037E146E554E163E072E08EE696E00E9403
S1133030C40C8EE696E00E94271660E08EE696E0C9
S11330400E9432166DEC7DE08EE696E00E947811C7
S11330506BE871E08EE696E00E948F116C018EE6BB
S113306096E00E944E0C64EB70E08EE696E00E94BF
S1133070781123E831E04BE050E066E470E08EE63E
S113308096E00E9422116DEC7DE08EE696E00E94AF
S113309078112BE731E04BE050E060E070E08EE621
S11330A096E00E9422112DE631E04CE150E060E010
S11330B070E08EE696E00E94221124E631E04DE3B2
S11330C050E066E270E08EE696E00E9422110F2E38
S11330D0F0E0EF2EF1E0FF2EF02D09E110E02BE1FE
S11330E030E04EE150E063E670E08EE696E00E9448
S11330F0C30B20E830E04EE050E060E070E08EE684
S113310096E00E94711222E330E04EE050E060E667
S113311070E08EE696E00E9477128EE696E00E94BA
S1133120640C61E08EE696E00E947C100F2EF0E6BF
S1133130EF2EF12CF02D8091010290910202019664
S113314061F08091010290910202019759F481E0AB
S113315090E07C01EC18FD0805C00F2EFFE5EF2E72
S1133160F12CF02DE7011BC08EE696E00E944E0C78
S11331702BE831E04DE250E0BE018EE696E00E947D
S1133180221102E02CE044E060E08EE696E00E942A
S11331906F0C8091010290910202C80FD91F8827F9
S11331A099278C199D098C179D072CF6C036D105DB
S11331B0DCF2C1CFA1E21A2EAA1BBB1BFD010DC07C
S11331C0AA1FBB1FEE1FFF1FA217B307E407F507D3
S11331D020F0A21BB30BE40BF50B661F771F881FAF
S11331E0991F1A9469F760957095809590959B0145
S11331F0AC01BD01CF010895A29FB001B39FC001EE
S1133200A39F700D811D1124911DB29F700D811D0E
S11332101124911D0895DC0101C06D93415050406B
S10B3220E0F70895F894FFCFD4
S1133228FCFFFF01FEFFFF03FFFFFF070700000786
S11332380700000707000007FFFFFF07FFFFFF075E
S1133248FFFFFF0700000000E0013C00F0037E00E0
S1133258F0037E00E0013C000000000000000000D4
S113326800F80000008C01000080010000800100CB
S113327800F000000080010000800100008C0100C3
S113328800F800005A616B6F70616E65004B7261E3
S11332986B6F7720476C6F776E790049432035331D
S11332A83631005769746B616379004B616C7761DF
S11332B8726961205A6562727A79646F77736B6197
S11332C8204C616E636B6F726F6E61202D20537595
S11332D8636861204265736B69647A6B61205A6123
S11332E86D656B202D204D616B6F7720506F64687E
S11332F8616C616E736B69202D20436861626F771E
S11333086B612053746164696F6E202D204E6F7752
S1133318792054617267202D20506F726F6E696E28
S113332800FFFF6D13BD13D0130001140A64643247
S11333383200093D0000042896100802028000406B
S1133348001815A015C019FF1815A115C819FF18DC
S113335815AE19FF1815AF19FF1815AE15D5168037
S113336815A8163F15D316001540158D16141520EB
S1133378160015A115C815DA1612158116CF15D918
S111338816F115DB1640152E15A415A619FF17
S9030000FC
